:10043A0050617373776F72643A00594553212121D1
:0F044A00006572726F7220007472792E2E2E0070
:10018C001204C07BFF7A04793A7D017F01120417B7
:10019C001200038F1CE51C60F7D3940A5041C3E591
:1001AC00199404E51894005028AE1AAF1B7C007DFE
:1001BC000A1202D28E1A8F1BE51C75F00A84E5F028
:1001CC00251BF51BE4351AF51A0519E519700205FE
:1001DC0018750C04AB1BAA1A7D017F02120477E57B
:1001EC001C640B7068E51BB4932BE51AB40E267BCC
:1001FC00FF7A0479447D0B7F01120417750C04AB54
:10020C001BAA1A7D017F02120477E4F51AF51BF57F
:10021C0018F51980387BFF7A04794B7D0B7F01121E
:10022C0004177FE87E031204947BFF7A0479527DD5
:10023C000B7F01120417E4F51AF51BF518F5197567
:10024C000C04AB1BAA1A7D017F02120477E51CB4C7
:10025C001017E4F51AF51BF518F519750C04AB1B02
:10026C00AA1A7D017F02120477E51C640C6003025C
:10027C00019CAE1AAF1BFC7D0A1202E48E1A8F1B76
:10028C00E519151970021518750C04AB1BAA1A7D0B
:09029C00017F0212047702019CAB
:10049400EF1FAC0670011E4C600B007D027CC7DCB4
:0504A400FEDDFC80EB11
:0104A9002230
:0604D400C2A58F80D2A733
:0804DA007F027EEFDEFEDFFC75
:0104E20022F7
:0A04EF00C2A61204D4C2A70204DA68
:10045900CFCDCFCECCCE1202E47C007D0A1202E4CD
:04046900ED2430FF4F
:0A046D00D2A61204D4C2A70204DADA
:1004AA00AE07BE0104ED148006BE0209ED243F44E6
:0604BA0080FF1204EF2296
:1004C0007F381204EF7F0C1204EF7F061204EF7FD7
:0404D000010204EF32
:0A04F900AC031204AAAF0402046D64
:060417008B088A09890A26
:10041D001204AAE4FDAB08AA09A90A8D827583000E
:0C042D001202A5FF600612046D0D80E9AC
:0104390022A0
:0C03E4007F0AEA24FFFDE434FFFC7E00E9
:0803F0008E0D8F0E8C0F8D1095
:1003F8007F017E00E4FBEBC39510E50F6480F87481
:0E0408008098500AAC0DAD0E1202D20B80E8A7
:0104160022C3
:040477008A0A8B0B57
:10047B001204AAAA0CEAD39400400D1203E4AC0AAE
:08048B00AD0B1204591A80EDBB
:010493002246
:100339001204AAC3EA64809480400B7F2B12046DD7
:100349008A168B17800E7F2D12046DC3E49BF51757
:10035900E49AF516AA15EAD39400400D1203E4AC09
:0903690016AD171204591A80EDBB
:010372002268
:040373008A1F8B2032
:100377001204AAAA21EAD3940040297F101203E6A7
:10038700AC1FAD20CFCDCFCECCCE1202E4EF540FB1
:10039700FEC3940AEE5004243080022437FF12046F
:0403A7006D1A80D17A
:0103AB00222F
:0403AC008A248B25EF
:1003B0001204AAAA26EAD394004028EA24FFFDE406
:1003C00034FFFC7F027E001203F0AC24AD25CFCDBC
:1003D000CFCECCCE1202E4EF54012430FF12046DD4
:0303E0001A80D2AE
:0103E30022F7
:100003008F087590FFC2932097147F147E0012040B
:10001300943097FD7F147E00120494750801209696
:10002300147F147E001204943096FD7F147E001218
:1000330004947508052095147F147E0012049430EF
:1000430095FD7F147E001204947508092094147F93
:10005300147E001204943094FD7F147E00120494E5
:1000630075080D7590FFC2922097147F147E0012BD
:1000730004943097FD7F147E0012049475080220C7
:1000830096147F147E001204943096FD7F147E0034
:100093001204947508062095147F147E00120494AC
:1000A3003095FD7F147E0012049475080A20941481
:1000B3007F147E001204943094FD7F147E0012049A
:1000C3009475080E7590FFC2912097147F147E00DB
:1000D3001204943097FD7F147E0012049475080374
:1000E3002096147F147E001204943096FD7F147EB4
:1000F300001204947508072095147F147E001204DF
:10010300943095FD7F147E0012049475080B20949F
:10011300147F147E001204943094FD7F147E001229
:10012300049475080F7590FFC2902097147F147E76
:10013300001204943097FD7F147E00120494750816
:10014300042096147F147E001204943096FD7F14CD
:100153007E001204947508082095147F147E001203
:1001630004943095FD7F147E0012049475080C20CE
:1001730094147F147E001204943094FD7F147E0047
:09018300120494750810AF082263
:030000000204E314
:0C04E300787FE4F6D8FD75812602018CBC
:1002A500BB010CE58229F582E5833AF583E022500E
:1002B50006E92582F8E622BBFE06E92582F8E22258
:0D02C500E58229F582E5833AF583E4932272
:1002D200EF8DF0A4A8F0CF8CF0A428CE8DF0A42E40
:0202E200FE22FA
:1002E400BC000BBE0029EF8DF084FFADF022E4CCFE
:1002F400F875F008EF2FFFEE33FEEC33FCEE9DECC7
:10030400984005FCEE9DFE0FD5F0E9E4CEFD22ED0C
:10031400F8F5F0EE8420D21CFEADF075F008EF2F56
:10032400FFED33FD4007985006D5F0F222C398FD47
:050334000FD5F0EA22E4
:00000001FF
