:100B5100024E000C0255FC1702570000025900001A
:100B6100020C00011C0EFFFFFFFFFFFFFFFFFFFF55
:100B7100FFFFFFFFFFFFFFFFFFFFFFFFFFFFFFFF84
:100B8100FFFF1C2AFFFFFFFFFFFFFFFFFFFFFFFF2C
:100B9100FFFFFFFFFFFFFFFFFFFFFFFFFFFFFFFF64
:0E0BA100044A00030007024600000250000054
:100D4C00758901D28CD2A9E555F58C85568AC28D50
:050D5C00C2B9D2AF2274
:100C0B00AE4AAF4B7C007D0A1209C58C088D09C317
:100C1B00ED9408EC64809480400675080075090516
:100C2B00AE4CAF4D7C007D0A1209C58C0A8D0BC3EF
:100C3B00ED9408EC648094804006750A00750B07F0
:100C4B007403254BF54BE4354AF54A7407254DF5EE
:070C5B004DE4354CF54C227D
:100CD700E558B50926E557B50821E55AB50B1CE5D2
:100CE70059B50A17050DE50D7002050C7508007555
:0C0CF7000908750A00750B08120C0B228E
:100D0300E4FFFEEF25E0240EF874FFF608F6EF2566
:100D1300E0242AF874FFF608F60FBF00010EEF6413
:040D23000F4E70DF20
:010D270022A9
:100C6200E4F548F549AF49EF25E0240EF8E6FC0823
:100C7200E6B55820E557B5041BEF25E0242AF8E62F
:100C8200FE08E6B55A0EE559B50609750C00750D54
:100C920001120D030549E54970020548C3940CE5AC
:080CA200486480948040BE22EA
:10048100120003120D4C120C0BE54F640A454E602D
:100491000BE552B40A06754E00754F0AE54F640C20
:1004A100454E600BE552B40C06754E00754F0CE5D8
:1004B1004F640F454E600BE552B40F06754E007543
:1004C1004F0FE54F6407454E600BE552B4070675C3
:1004D1004E00754F07AD5AAC59AF58AE57120BB01D
:1004E100AD0BAC0AAF09AE08120BB0120CD7E50C7C
:1004F1007097E50D14B40E00508F90050975F00347
:10050100A4C58325F0C5837302053302053D0205A9
:10051100520205760205B00205EA02062402065ED1
:100521000206980206D202070C0207460207800261
:1005310007BAAD2BAC2AAF0FAE0E8033AD2BAC2A70
:10054100AF0FAE0E120BB0AD2DAC2CAF11AE1080B3
:100551001EAD2BAC2AAF0FAE0E120BB0AD2DAC2CD5
:10056100AF11AE10120BB0AD2FAC2EAF13AE1212F5
:100571000BB002048AE4F553F554C3E5549405E540
:100581005364809480400302048AAD54ED25E02435
:100591000EF8E6FE08E6FFED25E0242AF8E6FC0861
:1005A100E6FD120BB00554E55470CF055380CBE442
:1005B100F553F554C3E5549406E5536480948040A3
:1005C1000302048AAD54ED25E0240EF8E6FE08E6A8
:1005D100FFED25E0242AF8E6FC08E6FD120BB00544
:1005E10054E55470CF055380CBE4F553F554C3E57E
:1005F100549407E55364809480400302048AAD5407
:10060100ED25E0240EF8E6FE08E6FFED25E0242ABC
:10061100F8E6FC08E6FD120BB00554E55470CF0571
:100621005380CBE4F553F554C3E5549408E5536482
:10063100809480400302048AAD54ED25E0240EF835
:10064100E6FE08E6FFED25E0242AF8E6FC08E6FDD3
:10065100120BB00554E55470CF055380CBE4F5532C
:10066100F554C3E5549409E5536480948040030232
:10067100048AAD54ED25E0240EF8E6FE08E6FFED10
:1006810025E0242AF8E6FC08E6FD120BB00554E546
:100691005470CF055380CBE4F553F554C3E554941E
:1006A1000AE55364809480400302048AAD54ED2529
:1006B100E0240EF8E6FE08E6FFED25E0242AF8E640
:1006C100FC08E6FD120BB00554E55470CF055380CC
:1006D100CBE4F553F554C3E554940BE5536480948E
:1006E10080400302048AAD54ED25E0240EF8E6FEB5
:1006F10008E6FFED25E0242AF8E6FC08E6FD120BEA
:10070100B00554E55470CF055380CBE4F553F5544F
:10071100C3E554940CE55364809480400302048A39
:10072100AD54ED25E0240EF8E6FE08E6FFED25E0E8
:10073100242AF8E6FC08E6FD120BB00554E55470D6
:10074100CF055380CBE4F553F554C3E554940DE53F
:100751005364809480400302048AAD54ED25E02463
:100761000EF8E6FE08E6FFED25E0242AF8E6FC088F
:10077100E6FD120BB00554E55470CF055380CBE470
:10078100F553F554C3E554940EE5536480948040C9
:100791000302048AAD54ED25E0240EF8E6FE08E6D6
:1007A100FFED25E0242AF8E6FC08E6FD120BB00572
:1007B10054E55470CF055380CBE4F553F554C3E5AC
:1007C10054940FE55364809480400302048AAD542D
:1007D100ED25E0240EF8E6FE08E6FFED25E0242AEB
:1007E100F8E6FC08E6FD120BB00554E55470CF05A0
:0307F1005380CB67
:100AD100E54E707BE54F24F9604124FB602424FD41
:100AE100605224057069E558155870021557D3E511
:100AF1005894FFE5576480947F505475570075589A
:100B010007220558E55870020557C39408E5576454
:100B1100809480403AE4F557F55822055AE55A7019
:100B2100020559C39408E559648094804021E4F595
:100B310059F55A22E55A155A70021559D3E55A94B6
:100B4100FFE5596480947F5006755900755A072254
:10000E00E50C600302047AE50D14B40E0040030201
:10001E00047A90002E75F003A4C58325F0C5837372
:10002E0002005802005A0200690200BF02011502C6
:10003E00016B0201C102021702026D0202C302032A
:10004E001902036F0203C502041A8062850E108521
:10005E000F11852A2C852B2D02046D755B00755CA6
:10006E0002E55C2401F55EE4355BF55DAF5CEF25E2
:10007E00E0240EF8E6FC08E6FDAE5EEE25E0240E6A
:10008E00F8A60408A605EF25E0242AF8E6FC08E603
:10009E00FDEE25E0242AF8A60408A605E55C155C0D
:1000AE007002155BE55CB4FFB8E55BB4FFB3020408
:1000BE006D755B00755C03E55C2401F55EE4355BF4
:1000CE00F55DAF5CEF25E0240EF8E6FC08E6FDAE2C
:1000DE005EEE25E0240EF8A60408A605EF25E02422
:1000EE002AF8E6FC08E6FDEE25E0242AF8A6040828
:1000FE00A605E55C155C7002155BE55CB4FFB8E522
:10010E005BB4FFB302046D755B00755C04E55C24A3
:10011E0001F55EE4355BF55DAF5CEF25E0240EF88E
:10012E00E6FC08E6FDAE5EEE25E0240EF8A6040819
:10013E00A605EF25E0242AF8E6FC08E6FDEE25E00C
:10014E00242AF8A60408A605E55C155C7002155B6A
:10015E00E55CB4FFB8E55BB4FFB302046D755B00FC
:10016E00755C05E55C2401F55EE4355BF55DAF5C21
:10017E00EF25E0240EF8E6FC08E6FDAE5EEE25E087
:10018E00240EF8A60408A605EF25E0242AF8E6FCBE
:10019E0008E6FDEE25E0242AF8A60408A605E55C8F
:1001AE00155C7002155BE55CB4FFB8E55BB4FFB39C
:1001BE0002046D755B00755C06E55C2401F55EE47A
:1001CE00355BF55DAF5CEF25E0240EF8E6FC08E646
:1001DE00FDAE5EEE25E0240EF8A60408A605EF257A
:1001EE00E0242AF8E6FC08E6FDEE25E0242AF8A62F
:1001FE000408A605E55C155C7002155BE55CB4FFB2
:10020E00B8E55BB4FFB302046D755B00755C07E582
:10021E005C2401F55EE4355BF55DAF5CEF25E02413
:10022E000EF8E6FC08E6FDAE5EEE25E0240EF8A61E
:10023E000408A605EF25E0242AF8E6FC08E6FDEE04
:10024E0025E0242AF8A60408A605E55C155C7002D4
:10025E00155BE55CB4FFB8E55BB4FFB302046D75E6
:10026E005B00755C08E55C2401F55EE4355BF55DCD
:10027E00AF5CEF25E0240EF8E6FC08E6FDAE5EEE80
:10028E0025E0240EF8A60408A605EF25E0242AF89A
:10029E00E6FC08E6FDEE25E0242AF8A60408A605ED
:1002AE00E55C155C7002155BE55CB4FFB8E55BB40C
:1002BE00FFB302046D755B00755C09E55C2401F506
:1002CE005EE4355BF55DAF5CEF25E0240EF8E6FCF1
:1002DE0008E6FDAE5EEE25E0240EF8A60408A6059F
:1002EE00EF25E0242AF8E6FC08E6FDEE25E0242AB8
:1002FE00F8A60408A605E55C155C7002155BE55CC6
:10030E00B4FFB8E55BB4FFB302046D755B00755CBA
:10031E000AE55C2401F55EE4355BF55DAF5CEF2527
:10032E00E0240EF8E6FC08E6FDAE5EEE25E0240EB7
:10033E00F8A60408A605EF25E0242AF8E6FC08E650
:10034E00FDEE25E0242AF8A60408A605E55C155C5A
:10035E007002155BE55CB4FFB8E55BB4FFB3020455
:10036E006D755B00755C0BE55C2401F55EE4355B39
:10037E00F55DAF5CEF25E0240EF8E6FC08E6FDAE79
:10038E005EEE25E0240EF8A60408A605EF25E0246F
:10039E002AF8E6FC08E6FDEE25E0242AF8A6040875
:1003AE00A605E55C155C7002155BE55CB4FFB8E56F
:1003BE005BB4FFB302046D755B00755C0CE55C24E9
:1003CE0001F55EE4355BF55DAF5CEF25E0240EF8DC
:1003DE00E6FC08E6FDAE5EEE25E0240EF8A6040867
:1003EE00A605EF25E0242AF8E6FC08E6FDEE25E05A
:1003FE00242AF8A60408A605E55C155C7002155BB8
:10040E00E55CB4FFB8E55BB4FFB38053755B007574
:10041E005C0DE55C2401F55EE4355BF55DAF5CEFEC
:10042E0025E0240EF8E6FC08E6FDAE5EEE25E0249F
:10043E000EF8A60408A605EF25E0242AF8E6FC0827
:10044E00E6FDEE25E0242AF8A60408A605E55C15CF
:10045E005C7002155BE55CB4FFB8E55BB4FFB38579
:10046E00570E85580F85592A855A2B22750C007503
:03047E000D01224B
:03000B00020A5096
:100A5000C0E0C0F0C083C082C0D075D000C000C06C
:100A600001C002C003C004C005C006C0070547E5B9
:100A700047700205460551E55170020550E555F5F0
:100A80008C85568AC3E5519496E5509400400B122C
:100A900007F48F52755000755100C3E5479490E5F7
:100AA0004694014011754600754700B2A012000E31
:100AB000120AD1120C62D007D006D005D004D003A0
:100AC000D002D001D000D0D0D082D083D0F0D0E0FE
:010AD00032F3
:100D6100EF1FAC0670011E4C600A7D027CC7DCFEE1
:040D7100DDFC80EC39
:010D7500225B
:020CAA00AD0794
:100CAC00E4FB74807E00A803088006CEA2E713CE76
:100CBC0013D8F8FFEDF582EF558224FF92B4D2B62B
:0A0CCC00C2B60BBB08DCD2B5C2B5FE
:010CD60022FB
:100D28008E608F61AF05120CAAAF617480A80708A6
:100D38008002C313D8FCF4F5807F017E00120D6198
:040D48007580FF2291
:05000300C2B5C2B622E7
:100BB0008F62EC704BEDB408005045900BC2F828E2
:100BC0002873020BDA020BDF020BE4020BE9020BC3
:100BD000EE020BF3020BF8020BFD75630180217529
:100BE0006302801C75630480177563088012756347
:100BF00010800D75632080087563408003756380E5
:0B0C0000AF627E00AD637C00020D2897
:1007F400E4F55F7590FFC2972093137F14FE120DEA
:10080400613093FD7F147E00120D61755F012092AB
:10081400147F147E00120D613093FD7F147E00124C
:100824000D61755F022091147F147E00120D6130FA
:1008340093FD7F147E00120D61755F032090147F79
:10084400147E00120D613093FD7F147E00120D6141
:10085400755F047590FFC2962093147F147E001276
:100864000D613093FD7F147E00120D61755F0520CC
:1008740092147F147E00120D613093FD7F147E006C
:10088400120D61755F06209103755F072090147F38
:10089400147E00120D613093FD7F147E00120D61F1
:1008A400755F087590FFC2952093147F147E001223
:1008B4000D613093FD7F147E00120D61755F092078
:1008C4009203755F0A2091147F147E00120D61302B
:1008D40093FD7F147E00120D61755F0B20900375EC
:1008E4005F0C7590FFC2942093147F147E00120D48
:1008F400613093FD7F147E00120D61755F0D2092AF
:10090400147F147E00120D613093FD7F147E00125B
:100914000D61755F0E209103755F0F2090147F1495
:100924007E00120D613093FD7F147E00120D6175FF
:040934005F10AF5F42
:01093800229C
:03000000020939B9
:0C093900787FE4F6D8FD75816302098028
:1009C500C2D5EC30E709B2D5E4C39DFDE49CFCEE4D
:1009D50030E715B2D5E4C39FFFE49EFE1209FBC3C1
:1009E500E49DFDE49CFC80031209FB30D507C3E4BC
:0609F5009FFFE49EFE22BC
:10094500020481E493A3F8E493A34003F68001F243
:1009550008DFF48029E493A3F85407240CC8C333B3
:10096500C4540F4420C8834004F456800146F6DF82
:10097500E4800B0102040810204080900B51E47EB6
:10098500019360BCA3FF543F30E509541FFEE49377
:10099500A360010ECF54C025E060A840B8E493A33E
:1009A500FAE493A3F8E493A3C8C582C8CAC583CA69
:1009B500F0A3C8C582C8CAC583CADFE9DEE780BE21
:010BAF000045
:1009FB00BC000BBE0029EF8DF084FFADF022E4CCE0
:100A0B00F875F008EF2FFFEE33FEEC33FCEE9DECA8
:100A1B00984005FCEE9DFE0FD5F0E9E4CEFD22EDEE
:100A2B00F8F5F0EE8420D21CFEADF075F008EF2F38
:100A3B00FFED33FD4007985006D5F0F222C398FD29
:050A4B000FD5F0EA22C6
:00000001FF
