:06033A00C2A58F80D2A7CE
:080340007F027EEFDEFEDFFC10
:010348002292
:0A034900C2A612033AC2A702034045
:1002BF00CFCDCFCECCCE1200427C007D0A120042B1
:0402CF00ED2430FFEB
:0A02D300D2A612033AC2A7020340AC
:1002FA00AE07BE0104ED148006BE0209ED243F4498
:06030A0080FF12034922EE
:100326007F381203497F0C1203497F061203497F67
:040336000102034974
:0A035300AC031202FAAF040202D359
:06029C008B088A09890AA3
:1002A2001202FAE4FDAB08AA09A90A8D827583003D
:0C02B200120003FF60061202D30D80E969
:0102BE00221D
:0C023F007F0AEA24FFFDE434FFFC7E008F
:08024B008E0D8F0E8C0F8D103B
:100253007F017E00E4FBEBC39510E50F6480F87427
:0E0263008098500AAC0DAD0E1200300B80E8F2
:01027100226A
:0402DD008A0A8B0BF3
:1002E1001202FAAA0CEAD39400400D12023FAC0AA2
:0802F100AD0B1202BF1A80EDF3
:0102F90022E2
:100194001202FAC3EA64809480400B7F2B1202D3CC
:1001A4008A168B17800E7F2D1202D3C3E49BF5179A
:1001B400E49AF516AA15EAD39400400D12023FAC56
:0901C40016AD171202BF1A80EDFE
:0101CD00220F
:0401CE008A1A8B1BE3
:1001D2001202FAAA1CEAD3940040297F10120241AB
:1001E200AC1AAD1BCFCDCFCECCCE120042EF540F06
:1001F200FEC3940AEE5004243080022437FF120218
:04020200D31A80D1BA
:0102060022D5
:040207008A1F8B209F
:10020B001202FAAA21EAD394004028EA24FFFDE463
:10021B0034FFFC7F027E0012024BAC1FAD20CFCD12
:10022B00CFCECCCE120042EF54012430FF1202D3BA
:03023B001A80D254
:01023E00229D
:10027200526573756C743D202020202073007761D5
:100282006974696E672E2E2E2E2E2E00424F4F4D10
:0A029200212121004C4F534552007A
:04035D000222000474
:10012300120326E5231523AE22700215224E602406
:100133007BFF7A0279727D017F0112029C750C05A7
:10014300AB23AA227D087F011202DD7FE87E031222
:10015300031080CC1203267BFF7A0279807D017F16
:100163000112029C7FE87E031203101203267BFF19
:100173007A02798E7D017F0112029C7BFF7A0279DC
:10018300967D017F0212029C7FE87E03120310809A
:010193008FDC
:10031000EF1FAC0670011E4C600B007D027CC7DC39
:05032000FEDDFC80EB96
:0103250022B5
:0300000002009764
:0C009700787FE4F6D8FD7581230200DEBE
:10000300BB010CE58229F582E5833AF583E02250B2
:1000130006E92582F8E622BBFE06E92582F8E222FC
:0D002300E58229F582E5833AF583E4932216
:10003000EF8DF0A4A8F0CF8CF0A428CE8DF0A42EE4
:02004000FE229E
:10004200BC000BBE0029EF8DF084FFADF022E4CCA2
:10005200F875F008EF2FFFEE33FEEC33FCEE9DEC6B
:10006200984005FCEE9DFE0FD5F0E9E4CEFD22EDB1
:10007200F8F5F0EE8420D21CFEADF075F008EF2FFB
:10008200FFED33FD4007985006D5F0F222C398FDEC
:050092000FD5F0EA2289
:1000A300020123E493A3F8E493A34003F68001F24F
:1000B30008DFF48029E493A3F85407240CC8C3335E
:1000C300C4540F4420C8834004F456800146F6DF2D
:1000D300E4800B010204081020408090035DE47E5D
:1000E300019360BCA3FF543F30E509541FFEE49322
:1000F300A360010ECF54C025E060A840B8E493A3E9
:10010300FAE493A3F8E493A3C8C582C8CAC583CA13
:10011300F0A3C8C582C8CAC583CADFE9DEE780BECB
:01036100009B
:00000001FF
