:0E0054007F327E0012006275A0FD7F327E00BA
:10006200EF1FAC0670011E4C600B007D027CC7DCEA
:05007200FEDDFC80EB47
:010077002266
:1000030075A0FE12005475A0FB12005E75A0F712D6
:10001300005E75A0EF12005E75A0DF12005E75A092
:10002300BF12005E75A07F12005E75A0BF12005E56
:1000330075A0DF12005E75A0EF12005E75A0F712C7
:10004300005E75A0FB12005475A0FE12005E020054
:0100530003A9
:0300000002007883
:0C007800787FE4F6D8FD758107020003D4
:00000001FF
