:1000C00075A0FE1200E012000E8F0AE50A60F7B478
:1000D00001F4050BE50BC3940240EBE4F50B80E65D
:03000B0002006F81
:0B006F00C0E0C0D075D000C000C0078A
:10007A00758A66758CFC0509E50970020508C39442
:10008A0014E50894004026750800750900E50B7010
:10009A000FAFA07801EF08800103D8FDF5A0800D0D
:0D00AA00AFA07801EF08800123D8FDF5A07C
:0900B700D007D000D0D0D0E03217
:1000E0005389F0438901C28DD28C758A66758CFC68
:0700F000D2A9D2AFC2B92270
:10000E00E4F50C20B1137F14FE1200F730B1FD7F22
:10001E00147E001200F7750C0120B0147F147E00C0
:10002E001200F730B0FD7F147E001200F7750C023F
:10003E0020B2147F147E001200F730B2FD7F147EC2
:10004E00001200F7750C0320B3147F147E0012000B
:10005E00F730B3FD7F147E001200F7750C04AF0C61
:01006E00226F
:1000F700EF1FAC0670011E4C600B007D027CC7DC55
:05010700FEDDFC80EBB1
:01010C0022D0
:0300000002010DED
:0C010D00787FE4F6D8FD75810C0200C07C
:00000001FF
