:10033800434C4F434B3A0020203A20203A202000DB
:100103001203241202E17BFF7A0379387D017F0118
:100113001202837BFF7A03793F7D017F0212028300
:10012300E51BFB3395E0FA750C027D017F02120299
:10013300C4E51CFB3395E0FA750C027D047F0212C3
:1001430002C4E51AFB3395E0FA750C027D077F02C2
:050153001202C480CB84
:03000B0002015897
:04015800C0E0C0D073
:10015C00758A66758CFC0519E51970020518C3942F
:10016C00E8E5189403402D751800751900051AE57B
:10017C001A648094BC401D751A00051CE51C648033
:10018C0094BC4010751C00051BE51B6480949840C2
:04019C0003751B00CC
:0501A000D0D0D0E032D8
:1002E1005389F0438901C28DD28C758A66758CFC65
:0702F100D2A9D2AFC2B9226D
:1000A200E4F52720B1137F14FE1202F830B1FD7F70
:1000B200147E001202F875270120B0147F147E000E
:1000C2001202F830B0FD7F147E001202F87527028A
:1000D20020B2147F147E001202F830B2FD7F147E2B
:1000E200001202F875270320B3147F147E00120257
:1000F200F830B3FD7F147E001202F8752704AF2793
:0101020022DA
:1002F800EF1FAC0670011E4C600B007D027CC7DC52
:05030800FEDDFC80EBAE
:01030D0022CD
:06034800C2A58F80D2A7C0
:08034E007F027EEFDEFEDFFC02
:010356002284
:0A036300C2A6120348C2A702034E0F
:1002A600CFCDCFCECCCE12004D7C007D0A12004DB4
:0402B600ED2430FF04
:0A02BA00D2A6120348C2A702034EA9
:10030E00AE07BE0104ED148006BE0209ED243F4483
:06031E0080FF12036322C0
:100324007F381203637F0C1203637F061203637F1B
:04033400010203635C
:0A036D00AC0312030EAF040202BA43
:060283008B088A09890ABC
:1002890012030EE4FDAB08AA09A90A8D8275830041
:0C02990012000EFF60061202BA0D80E990
:0102A5002236
:0C0250007F0AEA24FFFDE434FFFC7E007E
:08025C008E0D8F0E8C0F8D102A
:100264007F017E00E4FBEBC39510E50F6480F87416
:0E0274008098500AAC0DAD0E12003B0B80E8D6
:010282002259
:0402C4008A0A8B0B0C
:1002C80012030EAA0CEAD39400400D120250AC0A95
:0802D800AD0B1202A61A80ED25
:0102E00022FB
:1001A50012030EC3EA64809480400B7F2B1202BABF
:1001B5008A168B17800E7F2D1202BAC3E49BF517A2
:1001C500E49AF516AA15EAD39400400D120250AC34
:0901D50016AD171202A61A80ED06
:0101DE0022FE
:0401DF008A1F8B20C8
:1001E30012030EAA21EAD3940040297F101202526F
:1001F300AC1FAD20CFCDCFCECCCE12004DEF540FE0
:10020300FEC3940AEE5004243080022437FF120206
:04021300BA1A80D1C2
:0102170022C4
:040218008A248B2584
:10021C0012030EAA26EAD394004028EA24FFFDE438
:10022C0034FFFC7F027E0012025CAC24AD25CFCDE6
:10023C00CFCECCCE12004DEF54012430FF1202BAB7
:03024C001A80D243
:01024F00228C
:03000000020357A1
:0C035700787FE4F6D8FD758127020103D1
:10000E00BB010CE58229F582E5833AF583E02250A7
:10001E0006E92582F8E622BBFE06E92582F8E222F1
:0D002E00E58229F582E5833AF583E493220B
:10003B00EF8DF0A4A8F0CF8CF0A428CE8DF0A42ED9
:02004B00FE2293
:10004D00BC000BBE0029EF8DF084FFADF022E4CC97
:10005D00F875F008EF2FFFEE33FEEC33FCEE9DEC60
:10006D00984005FCEE9DFE0FD5F0E9E4CEFD22EDA6
:10007D00F8F5F0EE8420D21CFEADF075F008EF2FF0
:10008D00FFED33FD4007985006D5F0F222C398FDE1
:05009D000FD5F0EA227E
:00000001FF
