:0D03DA0022202020203A20203A202022005E
:040003000215091EBB
:1001F9001203B71203747BFF7A0379DA7D017F0159
:10020900120316750C04AB16AA157D027F011203A1
:1002190057750C02AB18AA177D077F011203577592
:0F0229000C02AB14AA137D0A7F0112035780D475
:03000B0002012EC1
:04012E00C0E0C0D09D
:10013200758A66758CFC0512E51270020511C3946E
:10014200E8E5119403404A751100751200E5141593
:100152001470021513E513648094805034751300F3
:1001620075143BE518151870021517C3E51764805E
:100172009480501D75170075183BE5161516700210
:100182001515C3E515648094805006751500751623
:01019200006C
:05019300D0D0D0E032E5
:100374005389F0438901C28DD28C758A66758CFCD1
:07038400D2A9D2AFC2B922D9
:10019800E4F52A20B1137F14FE12038B30B1FD7FE2
:1001A800147E0012038B752A0120B0147F147E0080
:1001B80012038B30B0FD7F147E0012038B752A0268
:1001C80020B2147F147E0012038B30B2FD7F147EA0
:1001D8000012038B752A0320B3147F147E001203C8
:1001E8008B30B3FD7F147E0012038B752A04AF2A6F
:0101F80022E4
:10038B00EF1FAC0670011E4C600B007D027CC7DCBE
:05039B00FEDDFC80EB1B
:0103A000223A
:0603CB00C2A58F80D2A73D
:0803D1007F027EEFDEFEDFFC7F
:0103D9002201
:0A03E700C2A61203CBC2A70203D185
:10033900CFCDCFCECCCE12004D7C007D0A12004D20
:04034900ED2430FF70
:0A034D00D2A61203CBC2A70203D10F
:1003A100AE07BE0104ED148006BE0209ED243F44F0
:0603B10080FF1203E722A9
:1003B7007F381203E77F0C1203E77F061203E77FFC
:0403C700010203E745
:0A03F100AC031203A1AF0402034D98
:060316008B088A09890A28
:10031C001203A1E4FDAB08AA09A90A8D827583001A
:0C032C0012000EFF600612034D0D80E968
:0103380022A2
:0C02E3007F0AEA24FFFDE434FFFC7E00EB
:0802EF008E0D8F0E8C0F8D1097
:1002F7007F017E00E4FBEBC39510E50F6480F87483
:0E0307008098500AAC0DAD0E12003B0B80E842
:0103150022C5
:040357008A0A8B0B78
:10035B001203A1AA0CEAD39400400D1202E3AC0ADB
:08036B00AD0B1203391A80EDFD
:010373002267
:100238001203A1C3EA64809480400B7F2B12034D04
:100248008A1E8B1F800E7F2D12034DC3E49BF51F62
:10025800E49AF51EAA1DEAD39400400D1202E3ACFD
:090268001EAD1F1203391A80EDCE
:01027100226A
:040272008A228B232E
:100276001203A1AA24EAD3940040297F101202E5B2
:10028600AC22AD23CFCDCFCECCCE12004DEF540F46
:10029600FEC3940AEE5004243080022437FF120372
:0402A6004D1A80D19C
:0102AA002231
:0402AB008A278B28EB
:1002AF001203A1AA29EAD394004028EA24FFFDE40F
:1002BF0034FFFC7F027E001202EFAC27AD28CFCDBA
:1002CF00CFCECCCE12004DEF54012430FF12034D90
:0302DF001A80D2B0
:0102E20022F9
:030000000200A259
:0C00A200787FE4F6D8FD75812A0200E9A1
:10000E00BB010CE58229F582E5833AF583E02250A7
:10001E0006E92582F8E622BBFE06E92582F8E222F1
:0D002E00E58229F582E5833AF583E493220B
:10003B00EF8DF0A4A8F0CF8CF0A428CE8DF0A42ED9
:02004B00FE2293
:10004D00BC000BBE0029EF8DF084FFADF022E4CC97
:10005D00F875F008EF2FFFEE33FEEC33FCEE9DEC60
:10006D00984005FCEE9DFE0FD5F0E9E4CEFD22EDA6
:10007D00F8F5F0EE8420D21CFEADF075F008EF2FF0
:10008D00FFED33FD4007985006D5F0F222C398FDE1
:05009D000FD5F0EA227E
:1000AE000201F9E493A3F8E493A34003F68001F26E
:1000BE0008DFF48029E493A3F85407240CC8C33353
:1000CE00C4540F4420C8834004F456800146F6DF22
:1000DE00E4800B0102040810204080900003E47EAF
:1000EE00019360BCA3FF543F30E509541FFEE49317
:1000FE00A360010ECF54C025E060A840B8E493A3DE
:10010E00FAE493A3F8E493A3C8C582C8CAC583CA08
:10011E00F0A3C8C582C8CAC583CADFE9DEE780BEC0
:0100070000F8
:00000001FF
